:1000000000000320D1010000B116000069160000B5
:1000100069160000691600006916000069160000E4
:10002000691600006916000069160000B11600008C
:10003000B116000069160000291200002D12000000
:10004000B1160000B1160000B1160000B116000094
:10005000B1160000B1160000B1160000B116000084
:10006000B1160000B1160000B1160000B116000074
:10007000B1160000B1160000B1160000B116000064
:10008000B1160000B1160000B1160000B116000054
:10009000B1160000B1160000B1160000B116000044
:1000A000F13A0000FD3A0000B1160000B116000060
:1000B000B1160000B1160000B1160000B116000024
:1000C000B1160000B1160000B1160000B116000014
:1000D000B1160000B1160000B1160000B116000004
:1000E000B1160000B1160000B1160000B1160000F4
:1000F000B1160000B1160000B1160000B1160000E4
:10010000B1160000B1160000B1160000B1160000D3
:10011000B1160000391C0000B1160000B116000035
:10012000B1160000B1160000B1160000B1160000B3
:10013000B1160000B1160000B1160000B1160000A3
:10014000B1160000B1160000B1160000B116000093
:10015000B1160000B1160000B1160000B116000083
:10016000B1160000B1160000093B0000B1160000F6
:10017000B1160000B1160000B1160000B116000063
:10018000B1160000B1160000B1160000B116000053
:10019000B1160000B1160000B1160000B116000043
:1001A000B1160000B1160000B1160000B116000033
:1001B000B1160000B1160000B1160000B116000023
:1001C000B1160000B1160000B1160000B116000013
:1001D0005C4B4CF2205210B51A804DF628121A8052
:1001E00000BF00BF01F068FA574B4FF030621A6051
:1001F000564A9A60564ADA60564B4FF470021A60BB
:10020000554B564A1A60564B1A78110703D51A787F
:1002100042F008021A70534B5349AA221A70534AEB
:10022000534B8B4204D252F8040F43F8040BF8E707
:10023000504B514900228B4202D243F8042BFAE77B
:100240004E494F4A002352F8230041F8230001335E
:10025000742BF8D14B4B4C4A802103F8011B93427D
:10026000FBD14A4B454A1A60494B8A221A70A3F5C2
:10027000805324225A70A0221A709A799207FCD5D2
:100280009A79D406FCD4434A937903F00C03082BE3
:10029000FAD1414B60221A7002331A78802AFCD1BD
:1002A0003C4B01221A715D225A719A799006FCD555
:1002B0009979384A4906FBD5384B394919600021EC
:1002C000596020231370937903F00C030C2BFAD19F
:1002D000344B354A1A60354A354C136813F4807331
:1002E00003D123604FF4A8531360324B324A1A6093
:1002F00000225A60072243F8042C304AC3F80C2D20
:1003000062B601F029FB2368DA0705D52C4801F015
:10031000B1FA2C4B2C4A1A602C4B1B785B0609D582
:10032000284C294B22689A4204D1254801F0A2FAB0
:100330000023236001F0C6F904F080F801F0B8F85A
:10034000FEE700BF0E20054030800440823F0400DD
:100350000100002B88ED00E0002008E0030000858C
:1003600002D0074000E007402414FF1FC0550000E2
:100370003007FF1F2414FF1FE015FF1F0002FF1F9F
:100380000000000000E400E064E400E008ED00E0AC
:10039000005006400040064001E007404480044011
:1003A0000000060204800440C010070010D0034083
:1003B00014D0034014E000E01FBF02000000202022
:1003C000FD0518621CE00340A5C3945A00F00740E5
:1003D000FFFFFFFFFFFFFFFFFFFFFFFFFFFFFFFF2D
:1003E000FFFFFFFFFFFFFFFFFFFFFFFFFFFFFFFF1D
:1003F000FFFFFFFFFFFFFFFFFFFFFFFFFFFFFFFF0D
:10040000FFFFFFFFFFFFFFFFFFFFFFFFDEF9FFFF23
:1004100010B5054C237833B9044B13B10448AFF33E
:1004200000800123237010BD2414FF1F0000000072
:10043000BC550000084B10B51BB108490848AFF384
:1004400000800848036803B910BD074B002BFBD0A0
:10045000BDE81040184700BF000000002814FF1F2F
:10046000BC5500002414FF1F00000000704700BFAF
:10047000704700BF38B5044608460D4604F040FBFF
:100480002368024629465B68204698470546204671
:1004900000F0D6FE284438BDF0B58B4D8B4C296852
:1004A0008B4F8C4E85B040F2EE2023783BB13B78E9
:1004B000DA0704D52B6832689B1A0E2B0BD82B68F1
:1004C00022785B1A5AB3B3F5FA6FEED923780A2073
:1004D0002BB901F0EFF923780A20002BF9D03B78F3
:1004E000DB07F6D52B6832689B1A0E2BF1D9162143
:1004F000794802F0FDF8794800F0A2FE784A794880
:100500000A2100F00DFD68B91B21774802F0F0F8D0
:10051000724800F095FE0A2001F0CCF9FBE7834217
:10052000C3D9D8E70E21714802F0E2F86B4800F019
:1005300087FE01216B4800F0CFFB19216C4802F0C7
:10054000D7F8684800F0FEFB032807D8DFE800F082
:100550005CB6B10267496148FFF78CFF0021614832
:1005600000F05EFC1721644802F0C2F85D4800F01C
:1005700073FC012800F09880C0F09180032803D11B
:100580005E495648FFF776FF0121564800F0F4FB1C
:1005900012215B4802F0ACF8524800F025FC0E280E
:1005A0000DD8DFE800F077726D68635E5908540C6F
:1005B0004F0C4A0C450053494848FFF75BFF0021A8
:1005C000484800F063FC0E214F4802F091F845487E
:1005D00000F0CEFC032807D8DFE800F025201B023E
:1005E0004A493E48FFF746FF4FF4FA713D4800F094
:1005F00077FD0123002202930093019211463948AE
:1006000000F088FD05B0F0BD41493448FFF732FFE6
:10061000A4E740493148FFF72DFFE5E73E492F4861
:10062000FFF728FFE0E73D492C48FFF723FFDBE712
:100630003B492A48FFF71EFFC1E73A492748FFF721
:1006400019FFBCE738492548FFF714FFB7E73749DA
:100650002248FFF70FFFB2E735492048FFF70AFFAE
:10066000ADE734491D48FFF705FFA8E732491B48AD
:10067000FFF700FFA3E731491848FFF7FBFE9EE7AD
:100680002F491648FFF7F6FE99E72E491348FFF762
:10069000F1FE94E72C491148FFF7ECFE8FE72B4958
:1006A0000E48FFF7E7FE6FE729490C48FFF7E2FE27
:1006B0006AE728490948FFF7DDFE4FE72649074862
:1006C000FFF7D8FE4AE700BF7814FF1F5C15FF1F35
:1006D0007415FF1FD815FF1FF05000007807FF1F8B
:1006E0003407FF1F4014FF1F9C4F0000B84F00004D
:1006F000C84F0000F84F00000450000034500000C4
:1007000040500000A8500000B0500000E45000002D
:10071000E44F0000D8500000CC500000C050000052
:100720008850000080500000785000007050000099
:1007300058500000A0500000685000009850000081
:100740006050000090500000545000001C50000009
:1007500028500000F04F0000E84F000030B52F4D4A
:100760002F4C8BB0284600F01DFC05212D4801F0D0
:10077000BFFFB5F90610204600F0B6FD07212A4854
:1007800001F0B6FFB5F90810204600F0ADFD0721D5
:10079000264801F0ADFFB5F90A10204600F0A4FD8F
:1007A000204600F04DFD01A9284600F067FC042119
:1007B0001F4801F09DFF069803F010FB41EC100B61
:1007C0002046022100F098FD05211A4801F090FF13
:1007D000079803F003FB41EC100B2046022100F0C8
:1007E0008BFD0521144801F083FF089803F0F6FA09
:1007F00041EC100B2046022100F07EFD08210F483D
:1008000001F076FF204600F01BFD642001F052F855
:10081000204600F015FD0BB030BD00BF4014FF1F97
:100820007807FF1F08510000105100001851000008
:1008300020510000285100003051000038510000C4
:1008400010B52421044600F08BFF204610BD00BFE8
:1008500010B5054C204600F019FA2046034A044919
:10086000BDE8104002F072B94014FF1F3007FF1FAF
:100870007104000010B4047F4160022CC26003D0F8
:100880005DF8044B00F06EBC83685DF8044B1847BC
:100890002DE9F0410468E56815F0807F794D256009
:1008A00052D1DF0740F1B380002900F0E3800D78DA
:1008B000012B18BF45F000456563013190F82C808D
:1008C00003F1FF3C48EA0828BCF1000F00F0A880C3
:1008D00021B14D7811F8028B45EA082845682E7A37
:1008E000BCF1020F06F1FF364FEA06360CBF48F0A6
:1008F000805548F01045B6B26563ACF1020C08E0D3
:100900000AB114700132013B05F47045B54216D9A5
:100910000468E56A15F0F00FF6D0A46B13F0010F30
:1009200017464FEA242EEBD11AB107F802EB5470A8
:100930003A4605F47045B542A3F10203E8D8BCF18C
:10094000000F6DD00468C3E7DD074CD5002900F027
:1009500089800D78012B18BF45F000456563013192
:1009600003F1FF3E90F82CC0BEF1000F41D029B139
:1009700091F801C00D78023145EA0C2C45682E7AB9
:10098000BEF1020F06F1FF364FEA06360CBF4CF0FF
:1009900080554CF01045B6B26563AEF1020E08E02A
:1009A0000AB114700132013B05F47045B54215D906
:1009B0000468E56A15F0F00FF6D013F0010F174642
:1009C000A46BEDD122B107F8024B241254703A46C1
:1009D00005F47045B542A3F10203E9D8BEF1000F5A
:1009E00007D00468C3E79E4690F82CC0BEF1000F04
:1009F000BDD11BB30468E16A11F0F00FFBD0A16B0D
:100A0000DC071DD50AB111700132013BF1E790F806
:100A10002C809C4648EA0828BCF1000F7FF458AFB0
:100A200063B10468E16A11F0F00FFBD0DE07A16B3F
:100A30000FD50AB111700132013BF1E7BDE8F08139
:100A40002AB114460D1204F8021B55702246023BCF
:100A5000CFE72AB114460D1204F8025B517022460A
:100A6000023BDDE790F82C50012B18BF45F0004504
:100A7000656375E790F82C50012B18BF45F00045D1
:100A800065631BE700041F80F0B4464B464A986B31
:100A90005C6B01791170454922790A701A6B0079F3
:100AA0000870002A46D05968C9688A423ED8216831
:100AB000CC8B240402F1FF3065D4C0F30E00C88350
:100AC000C88B80B2C882996B0968C88B000452D465
:100AD000C2F30E00C883C88B002480B212F1FF322B
:100AE000C88218BF01221C63596B2E4809680D6823
:100AF00000F12C04A54236D00068C46814F0804F81
:100B00000C680D6815BF248824780235013544F03F
:100B100000440D604463996B254B09791970214994
:100B200012B14A6B12791A70F0BC7047521A1A63EC
:100B30000122D9E7D86B196805681E4C0A63CC629C
:100B4000CC682D681C4E24F080440327B542CC604D
:100B500083F82D701FD1037F4260022BC2601ED02C
:100B6000F0BC00F0FFBA016890F82C00CC6840F0AF
:100B700000404863CFE7CC8BC2F3080004F47E4406
:100B80002043C883A7E7CC8BC0F3080004F47E445D
:100B90002043C88394E72B461146F0BC184783686E
:100BA000F0BC18473407FF1F1F8000401C80004026
:100BB0001B80004000000FFF7508000090E80C004B
:100BC000F0B41C6859682568164F174E29432160F8
:100BD000164D17491760D66015611160417A154AA4
:100BE0005C180C3194F82C4053F8215002EBC401EE
:100BF00049680D60017A5C1803EB8101247ECD69A0
:100C000002EBC40149680D60817A581803EB810337
:100C100090F84000596C02EBC002F0BC53681960B8
:100C2000704700BF01401F0001100038011000781C
:100C300000001F80985200000BB1FFF729BE7047DB
:100C400070B528220C4605460846002103F0E6FE52
:100C50000B220A49204603F0C1FF0023E3722D6AEC
:100C600007480849084A256101260225E6606362B3
:100C70006561E061A161226270BD00BF6452000045
:100C80000000C8C40000C8448FC2753C024A02601C
:100C900000228261C26170477452000070B58CB04E
:100CA000012400262125C26981690394234606A8F0
:100CB00001940296009501F04FFF2246022306A9F7
:100CC00004A802F04BF8214604A802F05DF80A20BF
:100CD00000F0F0FD0CB070BDF0B58369C26995B04D
:100CE0004FF0200E01240027CDF800E005460E4607
:100CF0000DEB0E001946039423460194029701F070
:100D00002BFF08A90523022204A802F027F8314688
:100D100004A802F039F8EA69A96902972325234655
:100D2000039401940EA8009501F016FF02230EA96A
:100D30001A4606A802F012F8314606A802F024F876
:100D400015B0F0BD30B58DB0012300252024C26957
:100D500081690393019306A80295009401F0FCFEBB
:100D600006A90523022204A801F0F8FF04A801F057
:100D7000FDFFC0B20DB030BDF0B501298DB00C46FD
:100D8000054625D0032927D0052929D007291BD0BE
:100D90000A2000F08FFD0027EA69A9690297012562
:100DA00020262B4606A803950195009601F0D4FE57
:100DB0002B4606A9042204A801F0D0FF214604A86E
:100DC00001F0E2FF0DB0F0BD0021FFF785FFDFE786
:100DD0000321FFF781FFDBE70221FFF77DFFD7E764
:100DE0000121FFF779FFD3E770B58CB0012400260D
:100DF0002025C26981690394234606A801940296BE
:100E0000009501F0A9FE234606A9042204A801F0DA
:100E1000A5FF04A801F0AAFFC0B20CB070BD00BFCE
:100E200070B5C26980698CB00123002422260D466A
:100E300003930146019306A80294009601F08CFEEC
:100E4000234606A9022204A801F088FF294604A827
:100E500001F09AFF0CB070BD30B58DB001230024B5
:100E60002225C26981690393019306A80294009523
:100E700001F072FE234606A9022204A801F06EFFCB
:100E800004A801F073FFC0B20DB030BD70B5C269E7
:100E900080698CB00123002621250C46039301466E
:100EA000019306A80296009501F056FE06A90523B7
:100EB000022204A801F052FF214604A801F064FFB9
:100EC0000CB070BDF0B58BB0012500240F27C269AE
:100ED000816903952B460646019504A80294009764
:100EE00001F03AFE04A801F00FFF3D2802D0204691
:100EF0000BB0F0BD3046FFF7D1FE30460321FFF7BF
:100F0000EBFE29463046FFF737FF21463046FFF714
:100F1000BDFF30462146FFF783FF28460BB0F0BDEA
:100F200070B5C569002384B0044683615DB128466D
:100F300002F070F808B904B070BD204604B0BDE8F6
:100F40007040FFF7BFBF2C200392029100F006FC17
:100F50000299039A01920646009549B20123034A79
:100F600002F00AF83546E661E1E700BF40420F00B3
:100F700030B58DB0012300252124C2698169039316
:100F8000019306A80295009401F0E6FD06A9052349
:100F9000022204A801F0E2FE04A801F0E7FEC0B2BC
:100FA0000DB030BDF0B58DB00123062528260027F1
:100FB000C2698169039304460195009606A80297C9
:100FC00001F0CAFD2A4604A906A801F04FFE9DF8CB
:100FD00015009DF811609DF810109DF813509DF8B4
:100FE00012209DF8143041EA062143EA002342EA28
:100FF0000522E180228163812046FFF7B9FF0328A3
:1010000028D0022823D0012827D1DFED187AB4F99F
:10101000063006EE103AB4F9083006EE903AB4F90C
:101020000A3007EE103AB8EEC66AF8EEE66AB8EE95
:10103000C77AC6EE275A86EEA76AC7EE276AC4EDBE
:10104000035A84ED046AC4ED056A0DB0F0BDDFED0E
:10105000087ADCE7DFED077AD9E79FED077AB84237
:10106000F7EE007A08BFF0EE477AD0E700D055459A
:1010700000900E4500E0D54400D0D54570B524263B
:101080000C46054682B032460846002103F0C6FCF5
:10109000114B296A1B6801930222019B2660284696
:1010A0006160A2602361FFF77DFFD5ED037A9FEDBC
:1010B0000B7A67EE877A0120C4ED057AD5ED047AC4
:1010C00067EE877AC4ED067AD5ED057A67EE877A02
:1010D000C4ED077A02B070BD7814FF1F0000C8424B
:1010E000F0B5C26980698BB0012300240227322643
:1010F0000D4603930146029404A88DE8C00001F058
:101100002BFD2246C5F30E0104A801F08DFD0BB0A6
:10111000F0BD00BFF0B58BB030279DF844509DF86E
:1011200040609DF848406D0045F0080545EA860599
:1011300045EA431343EA821242EAC113DDB20026B4
:101140000123C2698169039301932C4304A8029689
:10115000009701F001FD3246214604A801F064FD2C
:101160000BB0F0BD10B4EFF3108272B6437F33B909
:10117000017F012908D0032910D00123437702B948
:1011800062B65DF8044B7047114C2168A1B111495A
:1011900043610B68836108605861EEE70E4C21687B
:1011A00081B10E4943610B688361086058610C4B43
:1011B0004FF080511960E0E7064B4161816120608A
:1011C0001860DAE7054B4161816120601860EEE745
:1011D0007014FF1F6C14FF1F6414FF1F6814FF1F9F
:1011E00004ED00E070B5EFF3108272B60C4C20688D
:1011F00080B10C4E00254369236073B19D6102B933
:1012000062B6457783689847EFF3108272B620681C
:101210000028F0D102B962B670BD3360EFE700BFBD
:101220006414FF1F6814FF1FFFF7DCBF024A136836
:1012300001331360704700BF7814FF1F0020704710
:1012400030B5044683B002252A4601A8054900F0BE
:1012500037F923682A4601A95B682046984703B0FE
:1012600030BD00BF88520000F0B507468BB0002AA1
:1012700033D0012A08BF0A2251B3212400E0F4B27E
:10128000B1FBF2F502FB1511C8B2092900F13001DA
:1012900098BFC8B20AA988BF3730214488BFC0B2FE
:1012A00001F8240C661E2946002DE8D133B1013C1B
:1012B000E4B20AAB23442D2203F8242C3B6801AA94
:1012C00011195B683846C4F1220298470BB0F0BD93
:1012D00030228DF825202124E8E70368C9B21B6875
:1012E00098470BB0F0BD00BF0029BABF49422D237B
:1012F00000230A22FFF7B8BF2DE9F04357EC106B2B
:1013000085B005460C4610EE102A3B4610EE100A3A
:10131000394603F051F8002840F0B28027F0004928
:10132000304649464FF0FF32594B03F045F890B92B
:10133000304649464FF0FF32554B03F01FF850B985
:101340002B6854495B6828460322984780464046EC
:1013500005B0BDE8F0834FF060424F4B3046394650
:1013600003F020F8002872D14FF060424B4B30461A
:10137000394602F0F9FF002869D1002200233046E7
:10138000394602F0F1FF002864D18146002C67D075
:10139000434900204FF000083BA3D3E9002308F1A4
:1013A000010802F06FFD5FFA88F39C42F4D8024610
:1013B0000B463046394602F0B3FB0F46064603F0B3
:1013C00011F8804602F0E8FC02460B4630463946EA
:1013D00002F0A4FB4B4606460F460A224146284629
:1013E000FFF742FF0F2C28BF0F2404F101092E2321
:1013F00080465FFA89F98DF8003001240022294BDC
:101400003046394602F03EFD0F46064602F0EAFF3E
:1014100004AB2344C0B200F1300203F8102C02F0F8
:10142000CBFC02460B463046394602F077FB0134CE
:10143000E4B24C4506460F46E0D12B6822465B6875
:10144000284669469847404605B0BDE8F0832B68BA
:10145000154977E707F100431F464FF0010995E76B
:1014600000220F4B3046394602F05AFB02F0BAFF19
:101470004B4601460A222846FFF7F6FE804666E7FD
:101480002B680A495EE700BF000000A09999B93FA8
:10149000FFFFEF7F94520000FFFFEF41FFFFEFC11E
:1014A0000000E03F00002440905200008C520000F9
:1014B00008B5FEF7F1FFFFF751F901F01DFAFAE761
:1014C00001B441EA000313F003036FD1403A41D362
:1014D00051F8043B40F8043B51F8043B40F8043B0E
:1014E00051F8043B40F8043B51F8043B40F8043BFE
:1014F00051F8043B40F8043B51F8043B40F8043BEE
:1015000051F8043B40F8043B51F8043B40F8043BDD
:1015100051F8043B40F8043B51F8043B40F8043BCD
:1015200051F8043B40F8043B51F8043B40F8043BBD
:1015300051F8043B40F8043B51F8043B40F8043BAD
:1015400051F8043B40F8043B51F8043B40F8043B9D
:10155000403ABDD2303211D351F8043B40F8043B3D
:1015600051F8043B40F8043B51F8043B40F8043B7D
:1015700051F8043B40F8043B103AEDD20C3205D34D
:1015800051F8043B40F8043B043AF9D204320AD043
:10159000D2071CBF11F8013B00F8013B03D30B78C5
:1015A00003704B78437001BC704700BF0C2A4AD3CC
:1015B00010F0030311D0C3F10403D21ADB071CBFE0
:1015C00011F8013B00F8013B07D311F8013B00F88B
:1015D000013B11F8013B00F8013B11F003033FF41C
:1015E00075AF30B4043AC91AC3F1040C51F8044B76
:1015F000022B19D0032B0BD0240A51F8043B1D06F3
:1016000044EA050440F8044B1C46043AF4D216E0C0
:10161000240E51F8043B1D0244EA050440F8044B33
:101620001C46043AF4D20AE0240C51F8043B1D0491
:1016300044EA050440F8044B1C46043AF4D2043250
:10164000B1EB0C0130BC043AA0D3013A11F8013BD4
:1016500000F8013BF9D20B7803704B7843708B781C
:10166000837001BC704700BF08B5104C08E02368C8
:1016700059050DD423681A050FD42368DB0411D44F
:1016800023685803F3D500F0D7FA23685905F1D53C
:1016900000F00EF823681A05EFD500F009F823686A
:1016A000DB04EDD500F004F8EAE700BF3480044025
:1016B00008B5FFF7D9FF00BF014B10221A80704711
:1016C00000200540704700BF094908B50B6830B1DC
:1016D0006A461844A2F50052904202D208601846A9
:1016E00008BD02F0A5FE0C2303604FF0FF3008BDDB
:1016F0007407FF1F084A1378802B01D00020704721
:101700000649074B07480860002119701378802BA1
:10171000FCD00120704700BF03E007404480044034
:1017200001E0074000002822094A1378012B01D06C
:101730000020704703F1804303F5FC2360211970FA
:101740001378802BFCD1034B034A1A6001207047A9
:1017500003E00740448004400000060202F096BE09
:1017600002F09CBEF0B44D1E2E46002400E0013471
:10177000B0FBF2F302FB1300092800F130078ABF27
:101780003730F8B2C0B206F8010F1846002BEED180
:101790000A1953704CB1107815F8016F2870013395
:1017A000E01A834202F80169F5DB0846F0BC704795
:1017B00010B4114B53F8302092F8804234B1012319
:1017C00079B182F880305DF8044B704703EBC003B9
:1017D0005B681A6851B922F002021A605DF8044B86
:1017E000704782F800315DF8044B704742F0030205
:1017F0001A605DF8044B7047985200001C4A02EBD7
:10180000C00301295B6811D004291BD052F83000B5
:10181000002280F8802229B1022920D0032922D079
:101820001A6070474FF480721A60704752F83000A7
:101830004FF4A27280F880121A601A6822F0200217
:101840001A60704752F830104FF4A272012081F8EC
:1018500080021A601A6842F020021A60704740F253
:1018600003121A6070474FF481721A60704700BF0C
:101870009852000030B4054B054D064C0022102153
:101880001A602A602060196030BC704714D0034091
:1018900004D0034000D00340704700BF3F2801D868
:1018A000FFF786BF704700BF3F2801D8FFF7A6BFEC
:1018B000704700BF2DE9F843054672B6224F234B0F
:1018C000234A1B683C68126862B6520102D5322B6B
:1018D00088BF0134B5B3C3F52F3303F21F331D4E58
:1018E000DFF86890DFF868809B084FF47A72A6FBF7
:1018F000031302FB04F404EB930472B6D9F800104E
:101900003A68D8F800E062B6C1F52F3303F21F330E
:101910009B08A6FB03031EF0806FC4EB93034FF4F8
:101920007A7002D0322988BF013200FB0233B3F54E
:101930007A7F04D3013D05D004F57A74DDE700F029
:10194000DBFFDAE7BDE8F8837814FF1F18E000E05A
:1019500004ED00E0176CC116F8B54F4B4F48DFF8A7
:1019600060C14F4C4F49DFF85CE14F4E4F4D504F37
:101970004FF000621A604FF080521A604FF0005230
:101980001A604FF080421A604FF000421A60002245
:10199000282302604EF6FF70CCF80000CEF800302D
:1019A00023600EF5012E0B6033602B6006F50026D8
:1019B0003B6005F50025A36207F500278B6204F55F
:1019C000012401F5012106F6E87605F6E87507F52C
:1019D0007F6710310EF1100E203433602B60CEF88B
:1019E00000303B600B602360324CBB618B6109218E
:1019F0002160A7F5002704F58054203F08343A60A1
:101A00002060BB60E36047F8041C04F5FD2407F583
:101A1000FE27043704F2FC7422603860A360FB6088
:101A200044F8041C083404F6FC74C7F8FC2F20604A
:101A3000A4F5E124A4F2DC7433602B60C7F8F81F2E
:101A400021681D4841F40071216001681B4C0EF5AE
:101A50007F4E0EF1E80E07F5883706F5803605F55E
:101A6000803541F000710160CEF8002047F6FF712B
:101A70000822396033602B60226000F0B3FFFFF76B
:101A80000BFF1420FFF716FF00F010FD4FF48C70D1
:101A9000BDE8F840FFF70EBF04E100E0048003401A
:101AA000148003401C800340248003402C800340AA
:101AB00034800340008003400480044000900C40C8
:101AC000088003400C800340431E032B14D872B6D9
:101AD0000A4951F8230068B170B4094C058834F8FC
:101AE0001320466841F82360521B24F8132062B685
:101AF00070BC704762B6704700207047D414FF1F57
:101B0000C815FF1F013803280BD872B6074B53F8CE
:101B1000203043B100205B680130002BFBD162B65E
:101B20007047002070471846F9E700BF2815FF1FCF
:101B3000F0B472B61A491B4E012311F8014B194F2C
:101B40009A00240742F0010505D556F8324064B1E9
:101B500056F83520BAB10133052BEED162B6124BDF
:101B600000221A70F0BC00F037BD0F4C0F4D2178E9
:101B700007EB4313083001395860217047F83250A1
:101B800062B6F0BC7047084A0949137807EBC504F0
:101B90000830013B6060137047F8351062B6F0E71B
:101BA000C05400000000FF1F5115FF1F88004000B7
:101BB000C8004000431E032B1DD81B4A400140F0C3
:101BC000100030B4104472B6184CE25C032A1BD8E3
:101BD000DFE802F00212151703220D88E25410F01C
:101BE000080F14BFC823882343EA05430831416026
:101BF000036062B630BC704708300222EDE7052270
:101C0000EBE708300422E8E7094A52F8230038B12C
:101C1000084A52F82300416042F8231062B6E9E70F
:101C200042F82310034AF7E70000FF1F6015FF1F6B
:101C30002815FF1F3815FF1F2DE9F04FDFF814B3EB
:101C4000DFF814A387B044E0AD4F4FEA930807EBE9
:101C5000C809013ED9F8042003F00803F6B2A2F146
:101C6000080003F0FF04002B40F0038157F83830E0
:101C70001B0C99B222F8081C002B00F0F180A14B3C
:101C800022F8064C42F8044C53F82620002A00F0B3
:101C90006C819D4D55F8263058609C4C45F82600C7
:101CA00034F81630194424F8161000F075FC00289A
:101CB00000F05481964A974B19F0080F00F1080084
:101CC00018BF1346C9F8040047F8383008238BF8CA
:101CD00000309BF80040E4B260071BD58E4B1B78A8
:101CE000ABB18E490A7802F0FF032AB1013BDBB2A7
:101CF0000B70002B00F0B58389490A7802F0FF03CE
:101D00002AB1013BDBB20B70002B00F0F6800423FC
:101D10008BF8003004F0080303F0FF02002B00F002
:101D2000D5809AF80030DBB21E098DD19C08744F23
:101D300057F8342007EBC401C2F38302013A496823
:101D40000C2A7ED8DFE802F081817D7D7D7D7D7D5E
:101D5000427D7D7D07000868724B734D01936C4B8B
:101D60004A68724E47F8343081B240F281646D4B5C
:101D70006A60286000220120A1423A611A60BA61BB
:101D8000307000F2F680B1F5D06F80F0E882B1F5E6
:101D9000817F00F0D38200F2D881802900F04D814C
:101DA000822940F09282A988614B01F07F010429C9
:101DB00000F28C825F4C89000B44227062701A78AA
:101DC000930740F13883207002203AE1554B01938C
:101DD0001A6862B3584B5949544E18880C7896F8D3
:101DE00000E04028054684F0010C28BF402544F05F
:101DF0000204BEF1000F81F800C0A0EB050007EB64
:101E0000C40C0CBF8821C82180B28EF0010E41EABB
:101E10000541CCF80420188086F800E02A4447F8F1
:101E2000341010B9402D18BF0022019B1A603E4BA0
:101E30001A88B2F5A06F04D100219A785970404BEE
:101E40001A70404A0123137040E7374A158842F25E
:101E50002100854200F052812D4A47F83420F0E7F6
:101E60002B4A2C4B19F0080F18BF134647F838308F
:101E70002CE700F0B1FB344A344952F82630002BED
:101E800000F02D8158688C5D42F8260003F10802AD
:101E9000C9F80420032C05D8DFE804F0120F15025E
:101EA00004228A551A8819F0080F0CBF8823C8230A
:101EB00043EA024347F8383008E702228A55F1E73F
:101EC00003228A55EEE705228A55EBE7E00700F189
:101ED0007881210600F1A281A20706D51C4A1D497E
:101EE00013780220DBB213700870E30602D5194B99
:101EF00010221A7007B0BDE8F08F00F0D9FC06E799
:101F00000000FF1FD414FF1F8014FF1FC815FF1F00
:101F1000C8004000880040005C15FF1FE514FF1F4B
:101F20006415FF1F7C14FF1F4815FF1FE414FF1FDB
:101F3000C02007405415FF1F9014FF1F5015FF1FAE
:101F400098200740942007402815FF1F6015FF1FA9
:101F5000882007408020074090200740B74A47F874
:101F60003800137801331370B0E643F82600B44DFF
:101F700093E642F22104A14200F0AD8000F20E810E
:101F8000B1F5086F00F05481B1F5106F40F09D81FC
:101F9000AC4AA9781170AC4D042402E00134142C31
:101FA0000CD057F834301906F8D505EBC4030134CA
:101FB0005868083800F010FB142CF2D1A349A44B48
:101FC000A44A0291A449A54C9D4D039405964FF057
:101FD000000988461C4616460495206828B14568C5
:101FE00000F0FAFA2846002DF9D100232360049B63
:101FF00030681A46002342F8293028B1456800F0BD
:10200000EBFA2846002DF9D100223260029A98F8A6
:1020100000301146002241F8042B039A0291023B42
:102020004FF0000122F81910032B00F2B481DFE811
:1020300013F0E201AE01E201AE01894C02202270F0
:102040006270EA88824280F00D8286490D78402ACB
:1020500045F0020E944607EBCE0028BF4FF0400C2F
:1020600004EB0C0344600293CCEB02004FEA0C48F3
:102070004FF001090022C82444EA080385F0010456
:1020800047F83E3032700C70DFF8BCE1764BDFF879
:10209000D481002840F02081BCF1400F1BD144F0D6
:1020A000020407EBC403029FDFF89CE15F60002A93
:1020B00040F02781020442F0880286F800900D70FB
:1020C00007444EF834203B46402804D10020674A9C
:1020D000019910800B60664A01231370B1E68B5D95
:1020E000032B00F2248101A252F823F0CD1C000042
:1020F000CD1C00001122000017220000928862B956
:102100005C4ACD1D11F8013B02F8013F8D42F9D127
:10211000594A1268862A00F0C9805249524E0878FE
:10212000327840F0020580F00100087007EBC5012D
:10213000002A4FF00000486082F001020CBF8821A5
:10214000C82147F83510327086E640F202329142DB
:1021500040F0B080A98801F07F01042900F2B58029
:102160006A88002A40F0B180444C89000C448146C2
:10217000217841F0020121700020029080468446BF
:10218000044638490D7845F0020E07EBCE03B9F14D
:10219000000F5C600CBF8824C8246DE742F2212444
:1021A000A14240F08E80A988002940F04281344B42
:1021B000344A354C1B68AD78136081460A46257059
:1021C000DAE72B49204B3148264EDFF8B0C0304DBE
:1021D000DFF8D4E02F4F02240C702F4C18605C60A5
:1021E00098602E48D8601A619A610D2332702C4C89
:1021F0008CF800302B4EFF232B7001209F258EF88A
:1022000000303A7033702570087007B0BDE8F08F69
:1022100000238B555AE501238B5557E51749224B6F
:1022200080220D2008701A70A2077FF55EAE55E679
:10223000044A0B4C1278227003E700BF5115FF1FB0
:102240008014FF1F5C15FF1F0000FF1F3815FF1FC4
:10225000D414FF1F2815FF1F6015FF1FC815FF1F8F
:102260005415FF1F5015FF1FE414FF1F9014FF1F8C
:1022700094200740CF15FF1FD015FF1FC020074037
:102280007814FF1FD815FF1F7415FF1F880040002A
:1022900088200740982007409414FF1FE814FF1F70
:1022A000842007408C20074080200740754A0F217A
:1022B000117032E7B1F5A06F07D100224FF001098C
:1022C0005AE742F221329142F7D06F4B0F221A7037
:1022D0006E4A01231370B4E540287FF6E0AE44F067
:1022E00002040EEBC401029E4E60AAB183F8009076
:1022F000674A88F800503346403840334EF834205F
:10230000E5E6029B86F80090020442F0C8020D70D8
:1023100003444EF83420D7E683F80090029B5D4AD0
:1023200088F80050403840334EF83420CFE619F09A
:10233000080F0CBF022303238B55C7E4A98801F0C3
:102340007F010429C1D86A88002ABED14E4C890079
:102350000C448146217821F0020121700CE74E4A9D
:102360005468002CB1D06888B5F804E003E00C3262
:102370005468002CA9D013888342F8D15388734540
:10238000F5D1000A03280CBF2078108959E64FF0D8
:10239000010388F8003009F10109B9F1040F04F1D3
:1023A000040406F1040608F101087FF416AE3B4B65
:1023B000059E3B4DDFF8F080002018704FF00109BA
:1023C00018F8013B05F8043B1A0719D44FEA8904B1
:1023D00044F0020244F00304002347F8323047F887
:1023E0003430304B9D4209F10109E9D196F8009053
:1023F00089F00102C0E64FF0000388F80030CAE718
:1024000000F0CAF818B307EB49134FEA8904083003
:102410005860204B47F8343000F0BEF868B144F003
:10242000010307EBC30208305060194A47F8332014
:10243000CEE78146A0E6022003E6184B44F00102F5
:102440001B7847F83200154A01331370C0E7134B6D
:10245000124A1B784FEA8904013347F8340013709D
:10246000DAE700BE4028844628BF4FF0400C04EB5A
:102470000C03CCEB00004FEA0C48029300224FF013
:1024800001097EE6E514FF1FC020074094200740A5
:10249000C800400088004000C45400005115FF1FD0
:1024A000C4200740D4200740C0540000F8B500F015
:1024B0000BFB002324491A4601EBC30041F83320EB
:1024C0000133142B42604FF000041F48F4D11F4920
:1024D0001F4A0B68DFF890C01E4E1F4F1F4DDFF8DC
:1024E0008CE043F480230B60136843F04073136067
:1024F00003238CF8003001F52831A02333707C31A0
:1025000002F5C922C0F307233B701032C0F3074322
:102510000B70000EFF2328708EF80030104D0CF861
:10252000BC3C10481370012306F8AC3C81F85040C5
:1025300070264FF40014102107F8183C2E70046028
:1025400082F8F810F8BD00BF0000FF1F348004407F
:1025500000D80040402107409C200740B42007409D
:1025600035E400E004E100E044210740802007401A
:1025700000F0A2B800F07AB800F054B800F08EB8BD
:1025800000F06AB900F044B90846114600F0B0B84E
:10259000084600F031B900BF72B60D480268B2FAC1
:1025A00082F30B2B10DC4FF00041D94022EA0102EC
:1025B000026062B6074803EBC303DB00C2180021C8
:1025C000C15010465160704762B60020704700BF8E
:1025D0008807FF1FD003FF1F0D4B0E4AC31AA2FB33
:1025E00003231B090B2B0CD80B4A127852B972B675
:1025F0000A484FF00041026821FA03F31A430260CF
:1026000062B67047064A1278002AF0D0FFF790BAF7
:10261000D003FF1F398EE3385115FF1F8807FF1FB6
:102620005C15FF1F38B50F4D286878B143880288C4
:10263000C118013393420C7A02D24380204638BD40
:10264000FFF7CAFF002320462B6038BD064B1B78DE
:102650002BB10320FFF738FA28600028E6D14FF0AD
:10266000FF3038BD7015FF1F5C15FF1F10B5094CFA
:10267000206818B143881844007A10BD064B1B78B7
:102680002BB10320FFF720FA20600028F2D14FF091
:10269000FF3010BD7015FF1F5C15FF1F044B054A6E
:1026A0001B6890881BB11A885B88D31A184470473E
:1026B0007015FF1FC815FF1F0B4B1B789BB110B582
:1026C0000A4C206848B1FFF787FF002303202360EE
:1026D000FFF7FAF930B1FFF77FFF0320FFF7F4F9B6
:1026E0000028F8D110BD70475C15FF1F7015FF1F43
:1026F0002DE9F04FDFF8F89083B0012289F800202F
:10270000019169B3DFF8EC80354F019E8346D8F81C
:102710000000B0B3334D4488C4F14001B14228BF3A
:10272000314604EB010E00221FFA8EFE2A70761A43
:10273000A0F802E000F1080251B1013C22445944E2
:102740001BF8014B02F8014F8B45F9D1B0F802E0BC
:10275000BEF13F0F0BD8244A05211170002ED6D1AF
:102760000198002389F8003003B0BDE8F08F4022C3
:10277000028001460420FFF71DFA0022C8F800205D
:10278000E9E73A7822B3194C164D4FF0010A07E0F9
:10279000013C16D02A78A2B900F0AEF83A78BAB166
:1027A0000420FFF7AFF90728F2D889F800A0FFF757
:1027B000F3FEC8F800000028ADD10D4B013C1870A5
:1027C000E8D101234FF0FF302B7003B0BDE8F08F4C
:1027D00000234FF0FF3089F8003003B0BDE8F08FE0
:1027E0005C15FF1F6C15FF1F6415FF1F21480100BA
:1027F0006515FF1F6815FF1F00B583B002AB0121EF
:1028000003F8010D1846FFF773FF03B05DF804FBF2
:1028100038B50E4D0E4C28680123237028B140882E
:1028200000232370C0F1400038BD0A4B1B7813B958
:102830000020207038BD0420FFF764F90728F7D87E
:10284000FFF7AAFE28600028E9D1F1E76815FF1F0D
:102850006515FF1F5C15FF1FF8B5114B1B788BB179
:10286000104E114D346801272F7064B10F4A6388F0
:1028700000271770214623800420FFF79BF937605B
:1028800000232B70F8BDFFF787FE084B28B10146E7
:1028900004201C70FFF78EF9F2E71F70F0E700BF0D
:1028A0005C15FF1F6815FF1F6515FF1F6415FF1FCF
:1028B00038B50E4B1B7873B90D4C216861B103F02C
:1028C000FF054B880B800420FFF774F9256038BDA5
:1028D000084B01221A7038BDFFF75EFE0028F7D0C2
:1028E0000146BDE838400420FFF764B96515FF1FB5
:1028F0006815FF1F6415FF1F2DE9F843314E33782B
:1029000093B1314F3A787AB90122D9073A7036D467
:102910009A0719D400225B073A7005D52B4B1A6829
:1029200012B1EFF305820AB1BDE8F883EFF310812D
:1029300072B6186818B1264C2278002A2ED00029C9
:10294000F2D162B6BDE8F883DFF8908098F80020F5
:10295000002ADFD0DFF88890002405E0013498F8E1
:102960000030E4B2A34212D959F824502B6828460B
:102970001B6998470028F1D02B699847EEE7FFF7CD
:102980008DFEC8B9134B1B781BB93378C0E7337879
:10299000C0E7337803F0FE033370B9E745691D6083
:1029A000012323705DB1AA6101B962B600254577A4
:1029B000836898472570B7E700F084F8E2E7064B94
:1029C0001D60F1E78C07FF1F7515FF1F7014FF1FB7
:1029D0007414FF1F8F07FF1F6C14FF1F9015FF1F3C
:1029E0007815FF1F30B42948294A2A4B2A4D602404
:1029F000E121047011701B78284C082B30D00A2B71
:102A00002748284937D00C2B0CBF35225D221223D2
:102A10002A60236002600B60234B24491B78244A00
:102A2000BBB101230B601360224B23491B78234A5F
:102A3000012B26D9042B0FD9082B1ED9102B94BF9C
:102A4000862387230B6013601D4B01221A7030BC54
:102A500070470B601360E7E784230B601360F3E7B4
:102A600000F58E200F490830212213232A602360AD
:102A700002600B60D0E73922F7E785230B60136013
:102A8000E2E780230B601360DEE700BF00400740F1
:102A9000014007408D07FF1F08B003400CB0034002
:102AA00008B00B400CB00B409215FF1F20B0034044
:102AB00020B00B408E07FF1F24B0034024B00B4012
:102AC0009115FF1F704700BF10B584B072B6FEF7B6
:102AD00011FE184A184B19491160702280211A7092
:102AE0001A46197013781B06FCD5154B1C68FEF7A7
:102AF0001BFE62B6134B9C429CBF04EB8404640033
:102B00002046114C01A90A22FEF72CFE01A92046FD
:102B1000002311F8012B01333AB10A2B20F8022FC0
:102B2000F7D11623237004B010BD5B00DBB2237015
:102B300004B010BD04000240000002400000074144
:102B40000C0002407F9698001C08FF1F0B460146B0
:102B5000184601F067BC00BFF0B542604FF0000EB0
:102B60009DF82070BDF814609DF81C509DF8182049
:102B700001600372C0F814E04773468185730273E5
:102B8000F0BD00BFF0B54389056885B0DCB21B0A13
:102B90008DF80C408DF80D304DB1437B019303ABA4
:102BA00000932846012300F02DF905B0F0BD4568DB
:102BB0004DB390F808E0BEF1030F26D00E4617463D
:102BC000BEF1000F0DD104F07F048DF80C40437B63
:102BD00000933A463146284603AB00F02BFB05B084
:102BE000F0BDBEF1020F04D164F07F048DF80C40FB
:102BF000EDE7BEF1010FEAD104F07F0444F0400498
:102C00008DF80C40E3E72846CFE7407B8DF80D4078
:102C1000013023F00104009003AB28468DF80C40EE
:102C200000F008FBC1E700BF02B9027B042A1AD8F2
:102C3000F0B4416100F10F077AB102F10E03867B17
:102C40003C46034400F10E055EB92170013BAB42E6
:102C50004FEA112104F10104F6D13946F0BCFFF727
:102C600091BF1970F2E70020704700BFF0B54489AA
:102C7000056885B0E6B2240A8DF80C608DF80D4029
:102C80005DB1437B009200241A4628460B4601940E
:102C900003A900F049F905B0F0BD45680DB3037A0A
:102CA000032B20D07BB966F07F068DF80C60437B48
:102CB0000092FF241A4628460B46019403A900F00F
:102CC0006DFB05B0F0BD022B04D106F07F068DF838
:102CD0000C60ECE7012B04BF66F03F068DF80C603A
:102CE000E5E72846D7E7437B0092FF275A1C44F0CC
:102CF00001040B462846019703A98DF80C408DF876
:102D00000D6000F04BFBC6E738B500F10F0421461B
:102D1000027B0546FFF7AAFF10B94FF0FF3038BD20
:102D2000287B0028FBD00E302B18AA7B21460E35BD
:102D3000002007E01C78013BAB4240EA040001F1AF
:102D400001010AD00002002AF4D00C78013BAB420A
:102D500040EA040001F10101F4D138BD10B4016072
:102D6000027143715DF8044B704700BF10B5044613
:102D70000068FFF7C9FF2179627901238B40D040B9
:102D8000013B184010BD00BF38B5054600680C4631
:102D9000FFF7BAFF2A7969792D6801239340013B37
:102DA0001C408B4020EA030004FA01F101432A7B16
:102DB0002846BDE83840FFF737BF00BF90F8A03085
:102DC00090F8A1209A4205D95A1C034480F8A0200B
:102DD000187E70474FF0FF30704700BF70B5044653
:102DE00040681E4603685B6815469847854201D0D7
:102DF000002070BD3146606800F0DEFCB0FA80F063
:102E0000400970BD2DE9F041079EC468DDF818E067
:102E10009519A54219D815460278984643680F4679
:102E200052000121044683F8A32083F82E1183F871
:102E30002D116EB1BEF1000F0AD0406803687146D3
:102E40005B6832469847864202D00020BDE8F08198
:102E500043462A4639462046BDE8F041FFF7BEBF4B
:102E60002DE9F843164607468846D2B201784068F5
:102E700000F02CFD864202D00020BDE8F88336B376
:102E80000023DFF854901C4612E090F8A03090F830
:102E9000A1209A4203F1010E00EB03011AD980F838
:102EA000A0E0087E28700134A4B2A64223460ED9C1
:102EB0007868026852694A4508EB0305E5D09047F7
:102EC0000134A4B2C0B2A64228702346F0D8012033
:102ED000BDE8F883FF20E5E7BD2D00000AB32DE92A
:102EE000F8431646994688460746002401E0A64264
:102EF00014D9FD68331B9D4228BF1D46731BA34296
:102F000094BF4B46002308EB04012A463846FFF7DE
:102F1000A7FF2C440028EAD1BDE8F8830120BDE8D2
:102F2000F8830120704700BF2DE9F041C568069F76
:102F30009DF81C60AA4202D90020BDE8F08190F8FB
:102F400000C0D0F804E04FF001084FEA4C0C1D46D9
:102F50008EF8A3C033468EF82E818EF82D8104465C
:102F6000FFF73CFF0028E7D043463A462946204673
:102F7000BDE8F041FFF7B2BF2DE9F0470446002558
:102F80000998A173FF219946206061742174E1734F
:102F900084F82850042090469DF820A0FEF7DEFB20
:102FA000A945194B194A294614BF4FF060574FF0F5
:102FB000645702E0172E08D0314633F8025F92FBC7
:102FC000F5F5A84501F10106F4D31AF0080F01D078
:102FD00047F080670E4B1AF0040F53F8213007D0EA
:102FE0001A0902F4706223F4704347F00077134328
:102FF0001F4384F80DA007606060C4F8088084F85F
:103000000C902046BDE8F0874251000000879303F2
:103010000852000010B5044690F90E00411C07D07C
:10302000C0B20121FEF740FC0121A07BFEF736FC77
:10303000206828B1FDF7C2FD012084F8280010BDEA
:103040000121E07BFEF730FC617BE07B11F0FB01AE
:1030500018BF0121FEF722FC94F91000421C07D092
:10306000C0B20121FEF720FC0121207CFEF716FCF6
:1030700094F91100431CDFD0C0B20021FEF714FC0C
:10308000012084F8280010BD2DE9F047046813469C
:103090000A4624B12046BDE8F047FDF7CDBD067BCA
:1030A0000C7885686249B1FBF5F5002E0CBF4FF036
:1030B00001094FF0800919EA040F0CBF4FF0010C11
:1030C0004FF0000CEDB2002B00F0AF80C5EB051700
:1030D000114602EB0308BF0011F801EB4B46002636
:1030E000002D50D0002F4ED03A46013AFDD1427B00
:1030F00012F0F70F40F08D8090F91020013212D0BD
:103100001EEA030214BF0124002464450BD0002AE8
:103110006CD0446990F8242094F800C04CEA020274
:1031200022704FF0010C846990F8262094F800A0DA
:103130004AEA020222701DB117B13A46013AFDD1A6
:1031400090F91120013206D0C26990F8254012781A
:10315000224218BF1E43826990F826A0147824EA00
:103160000A04147090F91120013201D001F8016CA9
:10317000027B002A35D15B00DBB2002BB0D1884541
:10318000AAD1BDE8F087427B12F0F70FB4D0846972
:1031900090F8262094F800A04AEA0202227090F9E2
:1031A000102001320AD01EEA030F44692AD090F899
:1031B000242094F800A04AEA02022270846990F860
:1031C00026A0227822EA0A02227090F91120013208
:1031D000CED0C26990F825401278224218BF1E4313
:1031E000C4E75B08002B7FF47BAFC8E7D0F814A0DE
:1031F00090F824C09AF8004024EA0C048AF80040B1
:10320000944690E790F824A0227822EA0A022270DD
:10321000D4E7846990F8262094F800A04AEA0202D4
:1032200022703A46013AFDD1B9E7BDE8F08700BF08
:1032300020A107002DE9F0430C4683B001680A9FE6
:10324000064690461D4681B14268CB7A1268002B33
:103250005CD10B68D968914207D04648186046494E
:10326000DA6042F080401861196096F90E00431C44
:1032700003D0C0B20021FEF711FB77B105EB0709BF
:103280000DF1070715F8013B8DF80730012239468B
:103290003046FFF7F9FE4D45F4D1B8F1000F0ED0DE
:1032A00004EB08050DF1070714F8013B8DF8073012
:1032B000012239463046FFF7E7FEA542F4D196F9E0
:1032C0000E00451C03D0C0B20121FEF7E7FA3368B7
:1032D000C3B1DA7AB2B1D40703D5284AD9691160EB
:1032E000DA7A900703D5264A196A1160DA7A51070B
:1032F00003D5244A596A1160DA7A120702D5224AA4
:103300009B6A1360012003B0BDE8F08372B6CB7AEC
:10331000D80709D5DFF874E0C868DEF8003003404C
:10332000CB61CEF80030CB7A980709D5DFF860E0A2
:103330000869DEF8003003400B62CEF80030CB7A2B
:10334000580709D5DFF84CE04869DEF80030034043
:103350004B62CEF80030CB7A180708D5DFF838E09A
:103360008869DEF8003003408B62CEF8003062B628
:103370006FE700BF01403F0000003F8000E100E038
:1033800004E100E008E100E00CE100E080E100E0A1
:1033900084E100E088E100E08CE100E02DE9F04705
:1033A0000D4682B00168DDF828909DF82C80064615
:1033B00017461C4681B14268CB7A1268002B5DD15A
:1033C0000B68D968914207D0464818604649DA60D0
:1033D00042F080401861196096F90E00431C03D03A
:1033E000C0B20021FEF75AFA77B105EB070A0DF1DA
:1033F000070715F8013B8DF80730012239463046A2
:10340000FFF742FE5545F4D1B9F1000F0FD0A144AA
:103410000DF107070122394630468DF80780FFF786
:1034200033FE9DF8073004F8013BA145F2D196F92F
:103430000E00451C03D0C0B20121FEF72FFA3368FD
:10344000C3B1DA7AB2B1D40703D5284AD969116079
:10345000DA7A900703D5264A196A1160DA7A510799
:1034600003D5244A596A1160DA7A120702D5224A32
:103470009B6A1360012002B0BDE8F08772B6CB7A78
:10348000D80709D5DFF874E0C868DEF800300340DB
:10349000CB61CEF80030CB7A980709D5DFF860E031
:1034A0000869DEF8003003400B62CEF80030CB7ABA
:1034B000580709D5DFF84CE04869DEF800300340D2
:1034C0004B62CEF80030CB7A180708D5DFF838E029
:1034D0008869DEF8003003408B62CEF8003062B6B7
:1034E0006EE700BF01403F0000003F8000E100E0C8
:1034F00004E100E008E100E00CE100E080E100E030
:1035000084E100E088E100E08CE100E090F8A12097
:1035100090F8A000101A704790F8A03090F8A12001
:103520009A4286BF1B18187E4FF0FF30704700BFCD
:10353000704700BF38B50546B0F82E0190B195F838
:103540002D311446C3F1890294420CD805F1A30031
:1035500018442246FDF7B4FF95F82D31234485F831
:103560002D31204638BD012014462871EEE700BFFA
:10357000B0F82E316BB190F82D31882B07D8C218D6
:10358000013380F82D31012082F8A3107047012308
:1035900003710020704700BF38B50269D478E4B2E7
:1035A000E106054625D51023D370630620D504F027
:1035B000040404F0FF03002C5BD04349D5F8342108
:1035C00000230B7085F82D31002A66D0904795F8BE
:1035D0002D31002B61D02B69D0229A702B6995F880
:1035E000A3201A712B69012285F82C210222DA709E
:1035F00038BD04F0400303F0FF00002BD7D19379CE
:10360000DBB203F0600160294ED0937803F0100321
:1036100003F0FF01B3B114F0010437D195F82C3158
:1036200095F82D1199424CD9591C2B4485F82C1131
:1036300093F8A33013712B69D0229A702B69022260
:10364000DA70D5E785F83011937943F02003937150
:103650002B6995F8A1101A798729D2B2C6D81A48D1
:1036600000780028C2D06818013185F8A1100276D0
:10367000BCE72A6985F8A130C02393702B69124AF0
:103680001979012111700222DA70B1E7C023937019
:103690002B691A790222DA70AAE70122002385F841
:1036A0002D2185F8A33096E703F0DF039371D5F859
:1036B000383123B185F8A00095F8A10098472A6910
:1036C000A3E71471B7E700BF9315FF1F2DE9F0477B
:1036D000374FDFF8E0903B68026982B006460093FE
:1036E000DDF8008000214FF49675D3789B065BD5FA
:1036F0003B680193019BC8EB03030F2BF5D949B13C
:10370000102BF2D000209070336980229A7002B0A2
:10371000BDE8F087726996F8313113440521187AB3
:10372000FEF7C2F8726996F831311344012193F81B
:1037300012A05046FEF7B8F8092400215046FEF7C3
:10374000ADF82B46013BFDD101215046FEF7A6F80E
:103750002B46013BFDD1013CEFD1706996F8311148
:1037600001444FF416720C7A4B7B09EBC4011B0227
:10377000496803F4E06343F064030B6096F8323168
:103780000344997CDB7D09EBC1011B02496803F40A
:10379000E06343F064030B60013AFDD13269D378F2
:1037A0009B064FF00101A3D4012002B0BDE8F087D1
:1037B0007814FF1F98520000F0B503691222DA70E6
:1037C0000269937803F0200385B004460D46002B70
:1037D0005ED0B42393703C4922690B680093009E2D
:1037E00005E00B680193019B9B1B042B42D8D37807
:1037F00003F0200303F0FF00002BF2D094F82D31EA
:10380000002B31D04FF0000E4FF0020C04EB0E03F2
:1038100093F8A33013710B680393039F206907E0AB
:103820009B060DD50B680293029BDB1B052B28D84A
:10383000C378DBB203F0020202F0FF06002AEFD0E9
:1038400080F803C02669F378DBB2DF0632462DD458
:103850009F062BD5DB0731D40EF1010E94F82D31E4
:103860005FFA8EFE7345D1D800201DBB002384F87B
:103870002E3104E09070236980229A70042005B0F4
:10388000F0BD86702369802204209A7005B0F0BDD7
:1038900003F0FF06FFF71AFF10B9042005B0F0BDD2
:1038A000236984F82F61B0229A7094E78023B37063
:1038B0000420DAE726698023B370D7E7BEF1000F52
:1038C0000CBF02200320F6E77814FF1F2DE9F0411A
:1038D00006690025122780F8A05080F8A150F770E3
:1038E000D0F810C09CF802E00EF0200E88B004461C
:1038F000884615461E46BEF1000F49D0B4238CF809
:1039000002307A4B21691A680092DDF800E006E087
:103910001A6801920198CEEB0000042830D8C878CC
:1039200000F0200000F0FF070028F1D04FEA480225
:1039300042F00102D2B20A711A680292DDF808E080
:10394000206906E01A6803920399CEEB010105296C
:103950002AD8C17801F0020101F0FF070029F1D057
:103960004FF0020C80F803C02269D17811F01107E2
:1039700022D12DBB002E0CBFA0238023937003E027
:103980008F70236980229A70384608B0BDE8F081B4
:103990000EF0FF07FFF79AFE0028F5D0236984F8A0
:1039A0002F71B0229A70ACE7877023698022384665
:1039B0009A7008B0BDE8F081802393700027E3E798
:1039C000012D78D0A021917021690A79BE46674601
:1039D0004FF0A80C1A680492049805E01A68059242
:1039E000059A121A052A4DD8CA7802F0020202F08E
:1039F000FF08002AF2D0CF702169CA78D2B212F043
:103A0000100F08465DD192065BD5013DEDB2012D48
:103A10004CD0BEF1870F3ED90A79012DDAD11A6850
:103A20000692069D05E01A680792079A521B052A1E
:103A300056D8C27802F0020202F0FF01002AF2D04A
:103A40000223C3702269D378DBB2D9063BD49B062C
:103A500037D5B023BEF1870F937043D8226904EBAA
:103A60000E0312791A760EF1010E5FFA8EFE00BF78
:103A700000BF00BF16B1236980229A7084F8A1E0CC
:103A8000774681E781F80280236980229A70774621
:103A900084F8A1E078E704EB0E0291F8048082F844
:103AA00018800EF1010E5FFA8EFEB6E781F802C0B3
:103AB00021690846ADE7A82191702069BE460279C8
:103AC000ADE7774660E710214FF49673D170013B64
:103AD000FDD12269937803F0F7037746937053E79B
:103AE0008170D1E723691B79C1E700BF7814FF1FFC
:103AF0000148FFF751BD00BF7009FF1F0148FFF7E4
:103B00004BBD00BFAC0AFF1F0148FFF745BD00BF1A
:103B10003408FF1F81F0004102E000BF83F0004342
:103B200030B54FEA41044FEA430594EA050F08BF58
:103B300090EA020F1FBF54EA000C55EA020C7FEA1C
:103B4000645C7FEA655C00F0E2804FEA5454D4EB99
:103B50005555B8BF6D420CDD2C4480EA020281EA63
:103B6000030382EA000083EA010180EA020281EA9B
:103B70000303362D88BF30BD11F0004F4FEA0131ED
:103B80004FF4801C4CEA113102D0404261EB4101FC
:103B900013F0004F4FEA03334CEA133302D0524282
:103BA00063EB430394EA050F00F0A780A4F101043E
:103BB000D5F1200E0DDB02FA0EFC22FA05F2801878
:103BC00041F1000103FA0EF2801843FA05F359415E
:103BD0000EE0A5F120050EF1200E012A03FA0EFCDD
:103BE00028BF4CF0020C43FA05F3C01851EBE37107
:103BF00001F0004507D54FF0000EDCF1000C7EEB24
:103C000000006EEB0101B1F5801F1BD3B1F5001F61
:103C10000CD349085FEA30004FEA3C0C04F1010480
:103C20004FEA445212F5800F80F09A80BCF1004FA9
:103C300008BF5FEA500C50F1000041EB045141EA2B
:103C4000050130BD5FEA4C0C404141EB010111F42C
:103C5000801FA4F10104E9D191F0000F04BF0146D7
:103C60000020B1FA81F308BF2033A3F10B03B3F1B5
:103C700020020CDA0C3208DD02F1140CC2F10C0245
:103C800001FA0CF021FA02F10CE002F11402D8BFA3
:103C9000C2F1200C01FA02F120FA0CFCDCBF41EA6F
:103CA0000C019040E41AA2BF01EB0451294330BD3E
:103CB0006FEA04041F3C1CDA0C340EDC04F114041B
:103CC000C4F1200220FA04F001FA02F340EA0300F2
:103CD00021FA04F345EA030130BDC4F10C04C4F138
:103CE000200220FA02F001FA04F340EA0300294618
:103CF00030BD21FA04F0294630BD94F0000F83F462
:103D0000801306BF81F480110134013D4EE77FEA44
:103D1000645C18BF7FEA655C29D094EA050F08BF90
:103D200090EA020F05D054EA000C04BF1946104671
:103D300030BD91EA030F1EBF0021002030BD5FEAB5
:103D4000545C05D14000494128BF41F0004130BDDD
:103D500014F580043CBF01F5801130BD01F0004531
:103D600045F0FE4141F470014FF0000030BD7FEAA4
:103D7000645C1ABF194610467FEA655C1CBF0B469F
:103D8000024650EA013406BF52EA033591EA030FB6
:103D900041F4002130BD00BF90F0000F04BF0021AE
:103DA000704730B54FF4806404F132044FF00005E1
:103DB0004FF0000150E700BF90F0000F04BF00215A
:103DC000704730B54FF4806404F1320410F00045C0
:103DD00048BF40424FF000013EE700BF42004FEABB
:103DE000E2014FEA31014FEA02701FBF12F07F4338
:103DF00093F07F4F81F06051704792F0000F14BF35
:103E000093F07F4F704730B54FF4607401F0004578
:103E100021F0004120E700BF50EA010208BF7047CF
:103E200030B54FF000050AE050EA010208BF7047C4
:103E300030B511F0004502D5404261EB41014FF42D
:103E4000806404F132045FEA915C3FF4DCAE4FF031
:103E500003025FEADC0C18BF03325FEADC0C18BF18
:103E6000033202EBDC02C2F1200300FA03FC20FA69
:103E700002F001FA03FE40EA0E0021FA02F11444B6
:103E8000C1E600BF70B54FF0FF0C4CF4E06C1CEACB
:103E900011541DBF1CEA135594EA0C0F95EA0C0F40
:103EA00000F0DEF82C4481EA030621EA4C5123EAB3
:103EB0004C5350EA013518BF52EA033541F48011E2
:103EC00043F4801338D0A0FB02CE4FF00005E1FB95
:103ED00002E506F00042E0FB03E54FF00006E1FBDF
:103EE00003569CF0000F18BF4EF0010EA4F1FF0422
:103EF000B6F5007F64F5407404D25FEA4E0E6D4162
:103F000046EB060642EAC62141EA55514FEAC52072
:103F100040EA5E504FEACE2EB4F1FD0C88BFBCF5EE
:103F2000E06F1ED8BEF1004F08BF5FEA500E50F19F
:103F3000000041EB045170BD06F0004646EA010165
:103F400040EA020081EA0301B4EB5C04C2BFD4EB97
:103F50000C0541EA045170BD41F480114FF0000E90
:103F6000013C00F3AB8014F1360FDEBF002001F0FE
:103F7000004170BDC4F10004203C35DA0C341BDC78
:103F800004F11404C4F1200500FA05F320FA04F04A
:103F900001FA05F240EA020001F0004221F000417E
:103FA00010EBD37021FA04F642EB06015EEA430EF1
:103FB00008BF20EAD37070BDC4F10C04C4F1200521
:103FC00000FA04F320FA05F001FA04F240EA0200D4
:103FD00001F0004110EBD37041F100015EEA430EA5
:103FE00008BF20EAD37070BDC4F1200500FA05F2C5
:103FF0004EEA020E20FA04F301FA05F243EA020344
:1040000021FA04F001F0004121FA04F220EA020052
:1040100000EBD3705EEA430E08BF20EAD37070BD98
:1040200094F0000F0FD101F00046400041EB010178
:1040300011F4801F08BF013CF7D041EA060195F05A
:10404000000F18BF704703F00046520043EB030314
:1040500013F4801F08BF013DF7D043EA0603704701
:1040600094EA0C0F0CEA135518BF95EA0C0F0CD00C
:1040700050EA410618BF52EA4306D1D181EA030152
:1040800001F000414FF0000070BD50EA410606BF4C
:104090001046194652EA430619D094EA0C0F02D191
:1040A00050EA013613D195EA0C0F05D152EA0336D6
:1040B0001CBF104619460AD181EA030101F00041F4
:1040C00041F0FE4141F470014FF0000070BD41F03D
:1040D000FE4141F4780170BD70B54FF0FF0C4CF417
:1040E000E06C1CEA11541DBF1CEA135594EA0C0F36
:1040F00095EA0C0F00F0A7F8A4EB050481EA030E83
:1041000052EA03354FEA013100F088804FEA033369
:104110004FF0805545EA131343EA12634FEA022237
:1041200045EA111545EA10654FEA00260EF00041F8
:104130009D4208BF964244F1FD0404F5407402D24A
:104140005B084FEA3202B61A65EB03055B084FEADB
:1041500032024FF480104FF4002CB6EB020E75EBD8
:10416000030E22BFB61A754640EA0C005B084FEA00
:104170003202B6EB020E75EB030E22BFB61A75467D
:1041800040EA5C005B084FEA3202B6EB020E75EBC8
:10419000030E22BFB61A754640EA9C005B084FEA40
:1041A0003202B6EB020E75EB030E22BFB61A75464D
:1041B00040EADC0055EA060E18D04FEA051545EA3C
:1041C00016754FEA06164FEAC30343EA52734FEAE5
:1041D000C2025FEA1C1CC0D111F4801F0BD141EA5E
:1041E00000014FF000004FF0004CB6E711F4801FC3
:1041F00004BF01430020B4F1FD0C88BFBCF5E06FA3
:104200003FF6AFAEB5EB030C04BFB6EB020C5FEAB2
:10421000500C50F1000041EB045170BD0EF0004E07
:104220004EEA113114EB5C04C2BFD4EB0C0541EA39
:10423000045170BD41F480114FF0000E013C90E636
:1042400045EA060E8DE60CEA135594EA0C0F08BFFA
:1042500095EA0C0F3FF43BAF94EA0C0F0AD150EAF9
:1042600001347FF434AF95EA0C0F7FF425AF10468C
:1042700019462CE795EA0C0F06D152EA03353FF4B4
:10428000FDAE1046194622E750EA410618BF52EA31
:1042900043067FF4C5AE50EA41047FF40DAF52EA05
:1042A00043057FF4EBAE12E74FF0FF3C06E000BFA2
:1042B0004FF0010C02E000BF4FF0010C4DF804CDAF
:1042C0004FEA410C7FEA6C5C4FEA430C18BF7FEA6F
:1042D0006C5C1BD001B050EA410C0CBF52EA430C9D
:1042E00091EA030F02BF90EA020F0020704710F11D
:1042F000000F91EA030F58BF994208BF90422CBFAC
:10430000D8176FEAE37040F0010070474FEA410CA4
:104310007FEA6C5C02D150EA013C07D14FEA430CC2
:104320007FEA6C5CD6D152EA033CD3D05DF8040B33
:10433000704700BF8446104662468C461946634665
:1043400000E000BF01B5FFF7B7FF002848BF10F13C
:10435000000F01BD4DF808EDFFF7F4FF0CBF012081
:1043600000205DF808FB00BF4DF808EDFFF7EAFFFD
:1043700034BF012000205DF808FB00BF4DF808EDB8
:10438000FFF7E0FF94BF012000205DF808FB00BFAD
:104390004DF808EDFFF7CEFF94BF012000205DF837
:1043A00008FB00BF4DF808EDFFF7C4FF34BF012044
:1043B00000205DF808FB00BF4FEA410C7FEA6C5C0F
:1043C00002D150EA013C0AD14FEA430C7FEA6C5C0F
:1043D00002D152EA033C02D14FF0000070474FF087
:1043E000010070474A0011D212F5001211D20DD50A
:1043F0006FF47873B3EB62520ED44FEAC12343F0EB
:10440000004343EA505323FA02F070474FF0000094
:10441000704750EA013002D14FF0FF3070474FF043
:104420000000704713460A460146022000F00ABC0D
:10443000014B1868704700BF1010FF1F70B50F4E7A
:104440000F4D761BB61018BF002405D0013455F867
:10445000043B9847A642F9D10A4E0B4D761B01F05A
:104460009FF8B61018BF002406D0013455F8043B5D
:104470009847A642F9D170BD70BD00BFAC55000091
:10448000AC550000B8550000AC550000024B014689
:10449000186800F00BB800BF1010FF1F024B014658
:1044A000186800F093BC00BF1010FF1F2DE9F04FFB
:1044B00001F10B05162D83B0064640F29F8035F0C2
:1044C000070500F1BF80A94200F2BC8000F0F4FAB9
:1044D000B5F5FC7FC0F09C826B0A00F0BA80042B1B
:1044E00000F28381A80900F1390E4FEA4E033830FB
:1044F000C44F07EB8303A3F108015C68A14207D115
:10450000ACE0002A80F2AC80E468A14200F0A68012
:10451000636823F003035A1B0F2AF2DDB9493C6993
:1045200001F1080E744500F0B381636823F00303C2
:104530005A1B0F2A00F39981002AC1F814E0C1F830
:1045400010E080F29E80B3F5007F80F06781DB0889
:1045500003F1010C01229B1002FA03F34A6851F89F
:104560003C80C4F8088001EBCC091A43A9F1080388
:10457000E3604A6041F83C40C8F80C4083100124D5
:104580009C40944200F28A80144206D120F003003D
:104590006400144200F10400FAD007EBC009CC46D5
:1045A0008046DCF80C108C4507D173E1002A80F2BC
:1045B0008181C9688C4500F06D814B6823F003034D
:1045C0005A1B0F2AF2DD0C46D1F80CC054F8088FA4
:1045D0004B1945F001054D6042F00101C8F80CC0CF
:1045E0003046CCF808807B613B61C3F80CE0C3F82F
:1045F00008E059609A5000F061FA1FE0102921D8B4
:1046000000F05AFA1025062302207E4F07EB8303A1
:10461000A3F108025C68944200F045816368E16898
:10462000A56823F00303234430465A68E96042F04A
:1046300001028D605A6000F041FA0834204603B050
:10464000BDE8F08F00240C232046336003B0BDE8A2
:10465000F08F80234FF0400E3F2049E770465DE722
:104660002344E1685A68A56842F00102E9603046D7
:104670008D605A6000F022FA0834204603B0BDE88D
:10468000F08F234430465A6842F001025A6000F02D
:1046900015FA0834204603B0BDE8F08FBC686368A3
:1046A00023F00308A84504D3C5EB08030F2B00F340
:1046B0008C80554BDFF860911A68D9F800300133CF
:1046C0002A4404EB080A00F0608102F580520F32A0
:1046D00022F47F6222F00F0211463046019200F070
:1046E000EFF9B0F1FF3F8346019A00F0588182450F
:1046F00000F2FC80454B1968DA451144196000F05E
:104700005381D9F80000DFF810E101301BBFCAEB7C
:104710000B0A5144CEF800B019601BF0070100F0FD
:104720001781C1F10800C1F58051834408315A4412
:10473000C2F30B02C2EB010949463046019300F077
:10474000BFF9431C019B00F03F81CBEB00024A44C0
:1047500042F001021968C7F808B04944BC42CBF8DE
:1047600004201960DFF8A49016D0B8F10F0F40F2C2
:10477000FD806268A8F10C0323F00703E01802F043
:1047800001024FF0050E1A430F2B6260C0F804E0DF
:10479000C0F808E000F21C811D4BBC681A68914209
:1047A00088BF19601B4B1A689142626888BF196004
:1047B00022F003029542A2EB050301D80F2B04DC83
:1047C000304600F07BF9002438E7621943F001031A
:1047D00045F0010565603046BA60536000F06EF93F
:1047E0000834204603B0BDE8F08F142B71D9542B48
:1047F00000F2A480280B00F16F0E4FEA4E036E30DA
:1048000076E600BF1410FF1F9C15FF1FA015FF1FA9
:104810009815FF1F9415FF1F2014FF1F5A0A042A22
:104820005ED9142A00F2B38002F15C0149005B32C8
:1048300007EB810C57F82110DFF8DC81ACF1080C94
:104840008C4500F088804A6822F00302934202D22D
:1048500089688C45F7D1D1F80CC07A68C4F80CC0CF
:10486000A160CCF80840CC6088E6631942F00107EB
:1048700045F00105656030464B610B61C3F80CE003
:10488000C3F808E05F609A50083400F017F9D5E6E5
:104890004A6873E608F1010818F0030F0CF1080CE0
:1048A0007FF47FAE30E0DC68A34208BF02303FF403
:1048B00035AEB3E60B440C465A68C96854F8085F35
:1048C00042F001025A603046E9608D6000F0F6F86F
:1048D000B4E603F15C0E03F15B004FEA4E0307E61A
:1048E0009A0902F1390149003832A1E7BC424A4B2A
:1048F0003FF400AF9C68626822F003025AE759F85F
:104900000839994540F0828010F0030F00F1FF3024
:10491000F5D17B6823EA04037B6064009C423FF688
:10492000BDAE002C3FF4BAAE1C4240467FF435AE1B
:1049300064001C4200F10400FAD02EE6B3F5AA7F11
:1049400018D8E80B00F1780E4FEA4E037730CFE528
:104950004FF48051EBE60121D8F80430921001FAAF
:1049600002F21A43C8F80420614677E70123CBF826
:10497000043025E740F25452934220D8A80C00F1AD
:104980007D0E4FEA4E037C30B2E51032A4E6542A85
:1049900026D81A0B02F16F0149006E3248E7BC6855
:1049A000626822F0030205E7CAF30B0000287FF4D7
:1049B000A8AE4244BB6842F001025A60ECE6FE2316
:1049C0004FF07F0E7E2093E501224FF00009C1E6F3
:1049D00004F10801304600F0F9F9D9F80010DBE6DF
:1049E000B2F5AA7F05D8DA0B02F1780149007732D7
:1049F0001EE740F254518A4205D89A0C02F17D011B
:104A000049007C3214E7FE217E2211E77B6884E7AF
:104A1000E808431C5B00F8E51410FF1F70B484071E
:104A200046D0541E002A41D0CDB2034602E0621E99
:104A3000E4B3144603F8015B9A07F8D1032C2ED98E
:104A4000CDB245EA05250F2C45EA054519D903F1F4
:104A500010022646103E0F2E42F8105C42F80C5C05
:104A600042F8085C42F8045C02F11002F2D8A4F1AA
:104A7000100222F00F0204F00F041032032C134432
:104A80000DD91E462246043A032A46F8045BFAD89A
:104A9000221F22F003020432134404F003042CB159
:104AA000C9B21C4403F8011BA342FBD170BC704780
:104AB00014460346C2E700BF704700BF704700BFFF
:104AC00038B5074C0023054608462360FCF7FCFD7B
:104AD000431C00D038BD2368002BFBD02B6038BDB1
:104AE000DC15FF1FFFFFFFFFFFFFFFFFFFFFFFFFC3
:104AF000FFFFFFFFFFFFFFFFFFFFFFFFFFFFFFFFC6
:104B000090F800F06DE9024520F007016FF0000C0D
:104B100010F0070491F820F040F049804FF00004B5
:104B20006FF00700D1E9002391F840F000F1080090
:104B300082FA4CF2A4FA8CF283FA4CF3A2FA8CF3C8
:104B40004BBBD1E9022382FA4CF200F10800A4FA2F
:104B50008CF283FA4CF3A2FA8CF3E3B9D1E9042383
:104B600082FA4CF200F10800A4FA8CF283FA4CF3BA
:104B7000A2FA8CF37BB9D1E9062301F1200182FA74
:104B80004CF200F10800A4FA8CF283FA4CF3A2FA7A
:104B90008CF3002BC6D0002A04BF04301A4612BA88
:104BA000B2FA82F2FDE8024500EBD2007047D1E98B
:104BB000002304F00305C4F100004FEAC50514F01A
:104BC000040F91F840F00CFA05F562EA05021CBFEB
:104BD00063EA050362464FF00004A9E740EA0103D7
:104BE0009B0770B42BD1032A29D90C4603462146D2
:104BF00054F8046BA6F1013525EA060515F0803F4F
:104C000006D1043A032A43F8046B2146EFD8A2B137
:104C10000C781C70013A013301313CB16AB111F8D2
:104C2000014B03F8014B013A002CF7D12AB11A4489
:104C3000002103F8011B9A42FBD170BC7047034668
:104C4000E5E700BF2DE9F047254C2568D5F8484138
:104C50000646884692469946C4B360681F2817DC0A
:104C6000431C76B104EB80050122C5F888A0D4F876
:104C7000881182401143022EC4F88811C5F80891AA
:104C80001ED00230636044F820800020BDE8F08729
:104C9000144B03B34FF4C870FFF7F8FB0446D0B1D0
:104CA000D5F84831002780E88800C5F848413846E3
:104CB0000123C4F88871C4F88C71002EE1D0D1E7CB
:104CC000D4F88C110A43C4F88C21DAE705F5A674F0
:104CD000C5F84841C1E74FF0FF30BDE8F08700BF9D
:104CE0009C5500008D440000024B13B1024800F0B7
:104CF00005B8704700000000094D00000023014680
:104D00001A461846FFF79EBF38B5074D074C2C1BB7
:104D1000A41005D0013C55F8043D9847002CF9D16A
:104D2000BDE8384000F048BC000000000000000072
:104D3000F8B5234F0C460646FFF7BEFEBB685D681C
:104D400025F00305291B01F6EF7121F47F6121F0A5
:104D50000F01A1F58054B4F5805F07DB00213046D8
:104D6000FFF7AEFEBB682B44984204D03046FFF7F5
:104D7000A5FE0020F8BD61423046FFF7A1FE0130DC
:104D80000DD0104BBA6819682D1B45F0010530464F
:104D9000091B55601960FFF791FE0120F8BD002145
:104DA0003046FFF78DFEBA68831A0F2BDEDD064C06
:104DB0000449246843F00103001B53600860D5E7F1
:104DC0001410FF1FA015FF1F2014FF1F002945D03E
:104DD0002DE9F0410D468046FFF76EFE55F8047C44
:104DE0006A4927F00103A5F10804E2188E685068AB
:104DF000B24220F0030062D0FE0750600BD455F899
:104E0000087CE41B01F1080EA56875453B446FD092
:104E1000E768EF60BD6015186D68ED0742D543F097
:104E200001026260E350B3F5007F18D2DB085A1C20
:104E30004D6851F83270A76001209B1000FA03F30F
:104E400001EBC2001D430838E0604D6041F832407C
:104E5000FC604046BDE8F041FFF730BE70475A0A9B
:104E6000042A53D89A0902F139077F0002F1380564
:104E700001EB870051F827204449083890424DD073
:104E8000516821F003018B4202D292689042F7D11F
:104E9000D068E060A2608460D4604046BDE8F04124
:104EA000FFF70CBE95683A4FBD4203443FD0D0682F
:104EB000E86043F0010285606260E350B3E7FF07FA
:104EC000034407D455F8082CA41A1344A068E268D8
:104ED000C26090602F4A126843F001009342606004
:104EE0008C60B6D32C4B40461968FFF721FFB0E722
:104EF00011184968C90744D49168D268CA6003444C
:104F000043F0010091606060E350A2E7142A17D8D3
:104F100002F15C077F0002F15B05A9E7AA104B686C
:104F2000012505FA02F213434B600246B1E743F054
:104F300001024C610C61E560A5606260E35088E7A6
:104F4000542A06D81A0B02F16F077F0002F16E0592
:104F50008EE7B2F5AA7F06D8DA0B02F178077F0058
:104F600002F1770584E740F25450824206D89A0C49
:104F700002F17D077F0002F17C0579E7FE277E259F
:104F800076E743F001026260E35062E71410FF1F0E
:104F90001C10FF1F1C14FF1F9C15FF1F4661696C2E
:104FA000656420746F2066696E64204C4953334DEC
:104FB000444C2063686970004C4953334D444C2085
:104FC000466F756E64210000506572666F726D6188
:104FD0006E6365206D6F64652073657420746F3A2D
:104FE000200000004C6F77004D656469756D00000E
:104FF0004869676800000000556C7472612D48694B
:10500000676800004F7065726174696F6E206D6F24
:1050100064652073657420746F3A2000436F6E746A
:10502000696E756F7573000053696E676C65206DEE
:105030006F646500506F7765722D646F776E000046
:105040004461746120726174652073657420746FAB
:105050003A200000302E36323520487A0000000019
:10506000312E323520487A00322E3520487A000021
:10507000313020487A000000323020487A000000A9
:10508000343020487A000000383020487A00000090
:1050900031353520487A000033303020487A00001E
:1050A00035363020487A00003130303020487A00E0
:1050B00052616E67652073657420746F3A2000003A
:1050C0002B2D342067617573730000002B2D382061
:1050D00067617573730000002B2D31322067617595
:1050E000737300002B2D31362067617573730000D8
:1050F0004164616672756974204C4953334D444C68
:1051000020746573742100000A583A2020000000C2
:10511000202009593A2020002020095A3A20200056
:1051200009583A20000000002009593A20000000E8
:1051300020095A3A2000000020755465736C6120E4
:1051400000FFFFFF02000300040005000600080046
:105150000A000C001000140018002000280038007D
:10516000400060008000C000000180010002800259
:105170000003FFFF3C80044000100000041A000000
:10518000FF7F00000F0E0000890A00000C0827FFB7
:105190000002000000020000000200000000000009
:1051A0000B071CFF000200000002000000020000CC
:1051B000000000000D0E1B000002000000020000B5
:1051C000000200000A020906141715160F1A2D0016
:1051D00000020000000200000002000000020000C7
:1051E00000020000000200000002000000020000B7
:1051F00000020000000200000003000001010202A2
:105200000404080810012000000000800000018054
:1052100000000000000002800000010001100000FA
:105220000000020001100100032000000100020044
:1052300003200100043000000320020003200300CB
:105240000540000005400100065000000650010026
:10525000076000000760010008700000076002009E
:10526000087001004C4953334D444C0000000000CD
:105270000000000071040000410800006D040000FF
:105280007D100000410C00000D0AFFFF6E616E00F2
:105290006F766600696E66004008FE4340A00440D9
:1052A0004408FE4344A004400018FE4300C00440EC
:1052B0003000FE43309004403400FE4334900440FC
:1052C0001C18FE431CC004401018FE4310C00440CC
:1052D0000818FE4308C004400C18FE430CC00440EC
:1052E0000C10FE430CB004401010FE4310B00440FC
:1052F0001810FE4318B004401C10FE431CB00440BC
:105300001410FE4314B004400418FE4304C00440CB
:105310000010FE4300B004400008FE4300A004401B
:105320000408FE4304A004400C08FE430CA0044003
:105330000808FE4308A004401418FE4314C00440AB
:105340001818FE4318C004400410FE4304B0044083
:105350000810FE4308B004406820FE4368D00440B3
:105360001400FE43149004403800FE43389004407B
:105370003C00FE433C9004404000FE43409004400B
:105380004808FE4348A004404C08FE434CA004409B
:105390002808FE4328A004402C08FE432CA004400B
:1053A0006020FE4360D004406420FE4364D004408B
:1053B0002010FE4320B004402410FE4324B00440DB
:1053C0002810FE4328B004402C10FE432CB00440AB
:1053D0004400FE43449004407000FE43709004403B
:1053E0007400FE43749004406800FE4368900440DB
:1053F0005008FE4350A004405808FE4358A0044003
:105400005C08FE435CA004405408FE4354A00440E2
:105410002018FE4320C004402418FE4324C004404A
:105420001008FE4310A004401408FE4314A00440DA
:105430003818FE4338C004403418FE4334C00440DA
:105440003018FE4330C004403C18FE433CC00440CA
:105450002C18FE432CC004402820FE4328D00440D2
:105460002C20FE432CD004400020FE4300D00440FA
:105470000420FE4304D004400820FE4308D004402A
:105480000C20FE430CD004401020FE4310D00440FA
:105490001420FE4314D0044000000000000000006F
:1054A0009125000089250000852500008125000048
:1054B0007D2500007925000075250000712500007C
:1054C00000151915000100009007FF1F12000000D1
:1054D00000020000BC07FF1F4300000000030000A3
:1054E0001808FF1F0000000001030904A407FF1FA4
:1054F00000000000020309040008FF1F0000000074
:10550000030309041C08FF1F000000000000000046
:105510000000000000000000348004404000000053
:1055200012112208300202050702131021072F0270
:1055300002050702180000003480044080000000CB
:10554000263AFFFFFF0206000000253BFFFFFF0297
:105550000600000019000000288004404000000000
:1055600004FFFFFFFF0500000000031AFFFFFF0517
:10557000050000004A0000000000000000000000DC
:1055800071350000353500003D1200003135000056
:105590000D350000BD2D000019350000E80BFF1F80
:1055A000F8B500BFF8BC08BC9E467047E94C000047
:0855B000350400005108000061
:0455B800F8B500BF83
:0855BC0090D5FF7F0100000003
:1055C4000000000000C00240745100000000000010
:1055D40000000000000000000000000000000000C7
:1055E40000000000000000000000000000000000B7
:1055F40000000000000000000000000000000000A7
:1056040000000000E015FF1FA0540000000000008F
:10561400E803000000000000FFFFFFFF010A04018F
:105624001201100102000040C01683047702010237
:105634000301000018035400650065006E00730048
:1056440079006400750069006E006F000902430070
:10565400020100C032090400000102020100052415
:10566400001001052401010104240206052406009A
:10567400010705820310004009040100020A00002A
:1056840000070503024000000705840240000000F3
:1056940016035500530042002000530065007200B9
:1056A400690061006C000000040309040C0300009D
:1056B40000000000000000000000000000000000E6
:1056C400000000008055000000000000E803000016
:1056D4000000000000600E4058550000000000006B
:1056E40000000000000000000000000000000000B6
:1056F40000000000000000000000000000000000A6
:105704000000000000000000000000000000000095
:105714000000000000000000000000000000000085
:105724000000000000000000000000000000000075
:105734000000000000000000000000000000000065
:105744000000000000000000000000000000000055
:105754000000000000000000000000000000000045
:105764000000000000000000000000000000000035
:105774000000000000000000000000000000000025
:105784000000000000000000000000000000000015
:105794000000000000000000000000000000000005
:1057A40000000000000000000000000000000000F5
:1057B40000000000000000000000000000000000E5
:1057C40000000000000000000000000000000000D5
:1057D40000000000000000000000000000000000C5
:1057E40000000000000000000000000000000000B5
:1057F40000000000000000000000000000000000A5
:105804008055000000000000E803000000000000D4
:105814000060064018550000000000000000000071
:105824000000000000000000000000000000000074
:105834000000000000000000000000000000000064
:105844000000000000000000000000000000000054
:105854000000000000000000000000000000000044
:105864000000000000000000000000000000000034
:105874000000000000000000000000000000000024
:105884000000000000000000000000000000000014
:105894000000000000000000000000000000000004
:1058A40000000000000000000000000000000000F4
:1058B40000000000000000000000000000000000E4
:1058C40000000000000000000000000000000000D4
:1058D40000000000000000000000000000000000C4
:1058E40000000000000000000000000000000000B4
:1058F40000000000000000000000000000000000A4
:105904000000000000000000000000000000000093
:105914000000000000000000000000000000000083
:105924000000000000000000000000000000000073
:10593400000000000000000000000000805500008E
:1059440000000000E80300000000000000700640B2
:1059540038550000000000000000000000000000B6
:105964000000000000000000000000000000000033
:105974000000000000000000000000000000000023
:105984000000000000000000000000000000000013
:105994000000000000000000000000000000000003
:1059A40000000000000000000000000000000000F3
:1059B40000000000000000000000000000000000E3
:1059C40000000000000000000000000000000000D3
:1059D40000000000000000000000000000000000C3
:1059E40000000000000000000000000000000000B3
:1059F40000000000000000000000000000000000A3
:105A04000000000000000000000000000000000092
:105A14000000000000000000000000000000000082
:105A24000000000000000000000000000000000072
:105A34000000000000000000000000000000000062
:105A44000000000000000000000000000000000052
:105A54000000000000000000000000000000000042
:105A64000000000000000000000000000000000032
:105A7400000000000000000000000000D40EFF1F22
:105A84003C0FFF1FA40FFF1F0000000000000000D8
:105A94000000000000000000000000000000000002
:105AA40000000000000000000000000000000000F2
:105AB40000000000000000000000000000000000E2
:105AC40000000000000000000000000000000000D2
